{
  "contractName": "Adoption",
  "abi": [
    {
      "constant": true,
      "inputs": [],
      "name": "lastCaller",
      "outputs": [
        {
          "name": "",
          "type": "address"
        }
      ],
      "payable": false,
      "stateMutability": "view",
      "type": "function"
    },
    {
      "constant": false,
      "inputs": [],
      "name": "renounceOwnership",
      "outputs": [],
      "payable": false,
      "stateMutability": "nonpayable",
      "type": "function"
    },
    {
      "constant": true,
      "inputs": [],
      "name": "owner",
      "outputs": [
        {
          "name": "",
          "type": "address"
        }
      ],
      "payable": false,
      "stateMutability": "view",
      "type": "function"
    },
    {
      "constant": true,
      "inputs": [
        {
          "name": "",
          "type": "address"
        }
      ],
      "name": "etherBalances",
      "outputs": [
        {
          "name": "",
          "type": "uint256"
        }
      ],
      "payable": false,
      "stateMutability": "view",
      "type": "function"
    },
    {
      "constant": true,
      "inputs": [],
      "name": "currentEndTime",
      "outputs": [
        {
          "name": "",
          "type": "uint256"
        }
      ],
      "payable": false,
      "stateMutability": "view",
      "type": "function"
    },
    {
      "constant": true,
      "inputs": [],
      "name": "finished",
      "outputs": [
        {
          "name": "",
          "type": "bool"
        }
      ],
      "payable": false,
      "stateMutability": "view",
      "type": "function"
    },
    {
      "constant": true,
      "inputs": [],
      "name": "breakSwitch",
      "outputs": [
        {
          "name": "",
          "type": "bool"
        }
      ],
      "payable": false,
      "stateMutability": "view",
      "type": "function"
    },
    {
      "constant": true,
      "inputs": [],
      "name": "winner",
      "outputs": [
        {
          "name": "",
          "type": "address"
        }
      ],
      "payable": false,
      "stateMutability": "view",
      "type": "function"
    },
    {
      "constant": true,
      "inputs": [],
      "name": "numberOfSubmitions",
      "outputs": [
        {
          "name": "",
          "type": "uint256"
        }
      ],
      "payable": false,
      "stateMutability": "view",
      "type": "function"
    },
    {
      "constant": false,
      "inputs": [
        {
          "name": "_newOwner",
          "type": "address"
        }
      ],
      "name": "transferOwnership",
      "outputs": [],
      "payable": false,
      "stateMutability": "nonpayable",
      "type": "function"
    },
    {
      "inputs": [],
      "payable": false,
      "stateMutability": "nonpayable",
      "type": "constructor"
    },
    {
      "payable": true,
      "stateMutability": "payable",
      "type": "fallback"
    },
    {
      "anonymous": false,
      "inputs": [
        {
          "indexed": false,
          "name": "winner",
          "type": "address"
        }
      ],
      "name": "Winner",
      "type": "event"
    },
    {
      "anonymous": false,
      "inputs": [
        {
          "indexed": false,
          "name": "timeUpdated",
          "type": "uint256"
        }
      ],
      "name": "TimeUpdated",
      "type": "event"
    },
    {
      "anonymous": false,
      "inputs": [],
      "name": "GameCancelled",
      "type": "event"
    },
    {
      "anonymous": false,
      "inputs": [
        {
          "indexed": true,
          "name": "previousOwner",
          "type": "address"
        }
      ],
      "name": "OwnershipRenounced",
      "type": "event"
    },
    {
      "anonymous": false,
      "inputs": [
        {
          "indexed": true,
          "name": "previousOwner",
          "type": "address"
        },
        {
          "indexed": true,
          "name": "newOwner",
          "type": "address"
        }
      ],
      "name": "OwnershipTransferred",
      "type": "event"
    },
    {
      "constant": false,
      "inputs": [],
      "name": "adopt",
      "outputs": [],
      "payable": true,
      "stateMutability": "payable",
      "type": "function"
    },
    {
      "constant": true,
      "inputs": [],
      "name": "getAdopters",
      "outputs": [
        {
          "name": "",
          "type": "address"
        }
      ],
      "payable": false,
      "stateMutability": "view",
      "type": "function"
    },
    {
      "constant": true,
      "inputs": [],
      "name": "checkCurrentEndTime",
      "outputs": [
        {
          "name": "",
          "type": "uint256"
        }
      ],
      "payable": false,
      "stateMutability": "view",
      "type": "function"
    },
    {
      "constant": true,
      "inputs": [],
      "name": "getSubmitions",
      "outputs": [
        {
          "name": "",
          "type": "uint256"
        }
      ],
      "payable": false,
      "stateMutability": "view",
      "type": "function"
    },
    {
      "constant": false,
      "inputs": [
        {
          "name": "to",
          "type": "address"
        }
      ],
      "name": "withdrawRewards",
      "outputs": [],
      "payable": false,
      "stateMutability": "nonpayable",
      "type": "function"
    },
    {
      "constant": false,
      "inputs": [],
      "name": "emergencyShutOff",
      "outputs": [],
      "payable": false,
      "stateMutability": "nonpayable",
      "type": "function"
    }
  ],
  "bytecode": "0x608060405260008060146101000a81548160ff02191690831515021790555034801561002a57600080fd5b50336000806101000a81548173ffffffffffffffffffffffffffffffffffffffff021916908373ffffffffffffffffffffffffffffffffffffffff1602179055506103e84201600281905550610cfc806100856000396000f3006080604052600436106100e6576000357c0100000000000000000000000000000000000000000000000000000000900463ffffffff1680632113522a146100e85780633de4eb171461013f57806342d866931461019657806370337150146101d9578063715018a6146101f05780638da5cb5b146102075780639653f8a11461025e578063a895f681146102b5578063b0f5d8a4146102e0578063b36ccbaf146102ea578063bef4876b14610315578063df0f38e614610344578063dfbf53ae14610373578063f1663791146103ca578063f2ac962e146103f5578063f2fde38b14610420575b005b3480156100f457600080fd5b506100fd610463565b604051808273ffffffffffffffffffffffffffffffffffffffff1673ffffffffffffffffffffffffffffffffffffffff16815260200191505060405180910390f35b34801561014b57600080fd5b50610154610489565b604051808273ffffffffffffffffffffffffffffffffffffffff1673ffffffffffffffffffffffffffffffffffffffff16815260200191505060405180910390f35b3480156101a257600080fd5b506101d7600480360381019080803573ffffffffffffffffffffffffffffffffffffffff1690602001909291905050506104b3565b005b3480156101e557600080fd5b506101ee6106ca565b005b3480156101fc57600080fd5b5061020561076e565b005b34801561021357600080fd5b5061021c610870565b604051808273ffffffffffffffffffffffffffffffffffffffff1673ffffffffffffffffffffffffffffffffffffffff16815260200191505060405180910390f35b34801561026a57600080fd5b5061029f600480360381019080803573ffffffffffffffffffffffffffffffffffffffff169060200190929190505050610895565b6040518082815260200191505060405180910390f35b3480156102c157600080fd5b506102ca6108ad565b6040518082815260200191505060405180910390f35b6102e86108b7565b005b3480156102f657600080fd5b506102ff610b0d565b6040518082815260200191505060405180910390f35b34801561032157600080fd5b5061032a610b13565b604051808215151515815260200191505060405180910390f35b34801561035057600080fd5b50610359610b26565b604051808215151515815260200191505060405180910390f35b34801561037f57600080fd5b50610388610b39565b604051808273ffffffffffffffffffffffffffffffffffffffff1673ffffffffffffffffffffffffffffffffffffffff16815260200191505060405180910390f35b3480156103d657600080fd5b506103df610b5f565b6040518082815260200191505060405180910390f35b34801561040157600080fd5b5061040a610b69565b6040518082815260200191505060405180910390f35b34801561042c57600080fd5b50610461600480360381019080803573ffffffffffffffffffffffffffffffffffffffff169060200190929190505050610b6f565b005b600360009054906101000a900473ffffffffffffffffffffffffffffffffffffffff1681565b6000600160009054906101000a900473ffffffffffffffffffffffffffffffffffffffff16905090565b6000600160009054906101000a900473ffffffffffffffffffffffffffffffffffffffff1673ffffffffffffffffffffffffffffffffffffffff163373ffffffffffffffffffffffffffffffffffffffff16148061051d5750600060149054906101000a900460ff165b151561052857600080fd5b600160009054906101000a900473ffffffffffffffffffffffffffffffffffffffff1673ffffffffffffffffffffffffffffffffffffffff163373ffffffffffffffffffffffffffffffffffffffff1614156105e1578173ffffffffffffffffffffffffffffffffffffffff166108fc3073ffffffffffffffffffffffffffffffffffffffff16319081150290604051600060405180830381858888f193505050501580156105db573d6000803e3d6000fd5b506106c6565b600060149054906101000a900460ff16156106c557600560003373ffffffffffffffffffffffffffffffffffffffff1673ffffffffffffffffffffffffffffffffffffffff1681526020019081526020016000205490506000600560003373ffffffffffffffffffffffffffffffffffffffff1673ffffffffffffffffffffffffffffffffffffffff168152602001908152602001600020819055508173ffffffffffffffffffffffffffffffffffffffff166108fc829081150290604051600060405180830381858888f193505050501580156106c3573d6000803e3d6000fd5b505b5b5050565b6000809054906101000a900473ffffffffffffffffffffffffffffffffffffffff1673ffffffffffffffffffffffffffffffffffffffff163373ffffffffffffffffffffffffffffffffffffffff1614151561072557600080fd5b6001600060146101000a81548160ff0219169083151502179055507f1dc43dc4f1689be1269b3e80407b3401b4cb752c02591cac32e47dfd758af27d60405160405180910390a1565b6000809054906101000a900473ffffffffffffffffffffffffffffffffffffffff1673ffffffffffffffffffffffffffffffffffffffff163373ffffffffffffffffffffffffffffffffffffffff161415156107c957600080fd5b6000809054906101000a900473ffffffffffffffffffffffffffffffffffffffff1673ffffffffffffffffffffffffffffffffffffffff167ff8df31144d9c2f0f6b59d69b8b98abd5459d07f2742c4df920b25aae33c6482060405160405180910390a260008060006101000a81548173ffffffffffffffffffffffffffffffffffffffff021916908373ffffffffffffffffffffffffffffffffffffffff160217905550565b6000809054906101000a900473ffffffffffffffffffffffffffffffffffffffff1681565b60056020528060005260406000206000915090505481565b6000600254905090565b6000600360149054906101000a900460ff161515156108d557600080fd5b426002541015610a1257600360009054906101000a900473ffffffffffffffffffffffffffffffffffffffff16600160006101000a81548173ffffffffffffffffffffffffffffffffffffffff021916908373ffffffffffffffffffffffffffffffffffffffff16021790555034600560003373ffffffffffffffffffffffffffffffffffffffff1673ffffffffffffffffffffffffffffffffffffffff168152602001908152602001600020600082825401925050819055506001600360146101000a81548160ff0219169083151502179055507f745c90b656b4aafe296c8ca35aeacfe56cb96c90e1d320e5da643fff1051b6c033604051808273ffffffffffffffffffffffffffffffffffffffff1673ffffffffffffffffffffffffffffffffffffffff16815260200191505060405180910390a1610aab565b346103e8811515610a1f57fe5b0490508060026000828254019250508190555033600360006101000a81548173ffffffffffffffffffffffffffffffffffffffff021916908373ffffffffffffffffffffffffffffffffffffffff1602179055507f89c93b2d508150920890ffe8618ab7811923d95fa8770ecb495ca54cb15c7169816040518082815260200191505060405180910390a15b34600560003373ffffffffffffffffffffffffffffffffffffffff1673ffffffffffffffffffffffffffffffffffffffff1681526020019081526020016000206000828254019250508190555060046000815480929190600101919050555050565b60025481565b600360149054906101000a900460ff1681565b600060149054906101000a900460ff1681565b600160009054906101000a900473ffffffffffffffffffffffffffffffffffffffff1681565b6000600454905090565b60045481565b6000809054906101000a900473ffffffffffffffffffffffffffffffffffffffff1673ffffffffffffffffffffffffffffffffffffffff163373ffffffffffffffffffffffffffffffffffffffff16141515610bca57600080fd5b610bd381610bd6565b50565b600073ffffffffffffffffffffffffffffffffffffffff168173ffffffffffffffffffffffffffffffffffffffff1614151515610c1257600080fd5b8073ffffffffffffffffffffffffffffffffffffffff166000809054906101000a900473ffffffffffffffffffffffffffffffffffffffff1673ffffffffffffffffffffffffffffffffffffffff167f8be0079c531659141344cd1fd0a4f28419497f9722a3daafe3b4186f6b6457e060405160405180910390a3806000806101000a81548173ffffffffffffffffffffffffffffffffffffffff021916908373ffffffffffffffffffffffffffffffffffffffff160217905550505600a165627a7a723058209c900dc0fa3e7a07d2595c71add0ddb63c6693a0abedf9138b693b5300319d760029",
  "source": "pragma solidity ^0.4.24;\n\nimport \"./Ownable.sol\";\n\n\ncontract Adoption is Ownable {\n\n    bool public breakSwitch = false;\n\n    address public winner;\n\n    uint256 public currentEndTime;\n    address public lastCaller;\n    bool public finished;\n\n    uint public numberOfSubmitions;\n\n    mapping (address => uint) public etherBalances;\n\n\n    event Winner(address winner);\n    event TimeUpdated(uint timeUpdated);\n    event GameCancelled();\n\n    constructor () public {\n        currentEndTime = now + 1000 seconds;\n    }\n\n    function () payable {\n        // accept ether\n    }\n\n    /**\n      * @dev allows a user to become the lastCaller iff the clock has not run out\n      */\n    function adopt() public payable {\n\n        require(!finished);\n        if (currentEndTime < now) {\n            winner = lastCaller; \n            etherBalances[msg.sender] += msg.value;\n            finished = true;\n            emit Winner(msg.sender);\n        } else {\n            uint timeIncrease = 1000 / msg.value;\n            currentEndTime += timeIncrease;\n            lastCaller = msg.sender;\n            emit TimeUpdated(timeIncrease);\n        }\n        etherBalances[msg.sender] += msg.value;\n        numberOfSubmitions++;\n    }\n\n    /**\n     * @dev returns the address of the winner; 0 if no winner yet\n     *\n     * @return address of winner\n     */\n    function getAdopters() public view returns (address) {\n        return winner;\n    }\n\n    /**\n     * @dev returns the time remaining on the clock\n     *\n     *\n     * @return time remaining on clock\n     */\n    function checkCurrentEndTime () public view returns (uint) {\n        return currentEndTime;\n    }\n\n    /**\n     * @dev returns the total number of submitions\n     *\n     * @return the number of submitions to the smart contract\n     */\n    function getSubmitions() public view returns(uint) {\n        return numberOfSubmitions;\n    }\n\n    /**\n     * @dev allows a user to withdraw his rewards if he is the winner or if\n     *    the contract has been cancelled, allows user to withdraw the amount\n     *    of ether that he depositted.\n     */\n    function withdrawRewards(address to) public {\n        require(msg.sender == winner || breakSwitch);\n        if (msg.sender == winner) {\n            to.transfer(address(this).balance);\n        } else if (breakSwitch) {\n            uint amount = etherBalances[msg.sender];\n            etherBalances[msg.sender] = 0;\n            to.transfer(amount);\n        }\n    }\n\n    /**\n     *@dev allows the owner of the contract to stop future submitions\n     */\n    function emergencyShutOff() public onlyOwner() {\n        breakSwitch = true;\n        emit GameCancelled();\n    }\n\n    \n\n}",
  "sourcePath": "/Users/aarondiamond-reivich/Desktop/testDEV/ConsenSysDevelopperProgram2018/contracts/Adoption.sol",
  "compiler": {
    "name": "solc",
    "version": "0.4.24+commit.e67f0147.Emscripten.clang"
  },
  "schemaVersion": "2.0.1",
  "updatedAt": "2018-08-17T21:20:18.061Z"
}